{
  "_format": "hh-sol-artifact-1",
  "contractName": "Betting",
  "sourceName": "contracts/Betting.sol",
  "abi": [
    {
      "inputs": [
        {
          "internalType": "uint256",
          "name": "",
          "type": "uint256"
        }
      ],
      "name": "bets",
      "outputs": [
        {
          "internalType": "address",
          "name": "user",
          "type": "address"
        },
        {
          "internalType": "uint256",
          "name": "amount",
          "type": "uint256"
        },
        {
          "internalType": "bool",
          "name": "resolved",
          "type": "bool"
        },
        {
          "internalType": "bool",
          "name": "won",
          "type": "bool"
        }
      ],
      "stateMutability": "view",
      "type": "function"
    },
    {
      "inputs": [],
      "name": "placeBet",
      "outputs": [],
      "stateMutability": "payable",
      "type": "function"
    },
    {
      "inputs": [
        {
          "internalType": "uint256",
          "name": "index",
          "type": "uint256"
        },
        {
          "internalType": "bool",
          "name": "won",
          "type": "bool"
        }
      ],
      "name": "resolveBet",
      "outputs": [],
      "stateMutability": "nonpayable",
      "type": "function"
    }
  ],
  "bytecode": "0x608060405234801561001057600080fd5b506107b9806100206000396000f3fe6080604052600436106100345760003560e01c806322af00fa14610039578063b6e1324414610079578063f90f4560146100a2575b600080fd5b34801561004557600080fd5b50610060600480360381019061005b919061041f565b6100ac565b60405161007094939291906104b7565b60405180910390f35b34801561008557600080fd5b506100a0600480360381019061009b9190610528565b610126565b005b6100aa6102a4565b005b600081815481106100bc57600080fd5b90600052602060002090600302016000915090508060000160009054906101000a900473ffffffffffffffffffffffffffffffffffffffff16908060010154908060020160009054906101000a900460ff16908060020160019054906101000a900460ff16905084565b600080549050821061016d576040517f08c379a0000000000000000000000000000000000000000000000000000000008152600401610164906105c5565b60405180910390fd5b6000808381548110610182576101816105e5565b5b906000526020600020906003020190508060020160009054906101000a900460ff16156101e4576040517f08c379a00000000000000000000000000000000000000000000000000000000081526004016101db90610660565b60405180910390fd5b60018160020160006101000a81548160ff021916908315150217905550818160020160016101000a81548160ff021916908315150217905550811561029f578060000160009054906101000a900473ffffffffffffffffffffffffffffffffffffffff1673ffffffffffffffffffffffffffffffffffffffff166108fc6002836001015461027291906106af565b9081150290604051600060405180830381858888f1935050505015801561029d573d6000803e3d6000fd5b505b505050565b600034116102e7576040517f08c379a00000000000000000000000000000000000000000000000000000000081526004016102de90610763565b60405180910390fd5b600060405180608001604052803373ffffffffffffffffffffffffffffffffffffffff16815260200134815260200160001515815260200160001515815250908060018154018082558091505060019003906000526020600020906003020160009091909190915060008201518160000160006101000a81548173ffffffffffffffffffffffffffffffffffffffff021916908373ffffffffffffffffffffffffffffffffffffffff1602179055506020820151816001015560408201518160020160006101000a81548160ff02191690831515021790555060608201518160020160016101000a81548160ff0219169083151502179055505050565b600080fd5b6000819050919050565b6103fc816103e9565b811461040757600080fd5b50565b600081359050610419816103f3565b92915050565b600060208284031215610435576104346103e4565b5b60006104438482850161040a565b91505092915050565b600073ffffffffffffffffffffffffffffffffffffffff82169050919050565b60006104778261044c565b9050919050565b6104878161046c565b82525050565b610496816103e9565b82525050565b60008115159050919050565b6104b18161049c565b82525050565b60006080820190506104cc600083018761047e565b6104d9602083018661048d565b6104e660408301856104a8565b6104f360608301846104a8565b95945050505050565b6105058161049c565b811461051057600080fd5b50565b600081359050610522816104fc565b92915050565b6000806040838503121561053f5761053e6103e4565b5b600061054d8582860161040a565b925050602061055e85828601610513565b9150509250929050565b600082825260208201905092915050565b7f496e76616c69642062657420696e646578000000000000000000000000000000600082015250565b60006105af601183610568565b91506105ba82610579565b602082019050919050565b600060208201905081810360008301526105de816105a2565b9050919050565b7f4e487b7100000000000000000000000000000000000000000000000000000000600052603260045260246000fd5b7f42657420616c7265616479207265736f6c766564000000000000000000000000600082015250565b600061064a601483610568565b915061065582610614565b602082019050919050565b600060208201905081810360008301526106798161063d565b9050919050565b7f4e487b7100000000000000000000000000000000000000000000000000000000600052601160045260246000fd5b60006106ba826103e9565b91506106c5836103e9565b92508282026106d3816103e9565b915082820484148315176106ea576106e9610680565b5b5092915050565b7f42657420616d6f756e742073686f756c6420626520677265617465722074686160008201527f6e20300000000000000000000000000000000000000000000000000000000000602082015250565b600061074d602383610568565b9150610758826106f1565b604082019050919050565b6000602082019050818103600083015261077c81610740565b905091905056fea2646970667358221220d55c820917f2df5b43d749ebe5e0e2edb89d43c6b174dac1adcd0b1e08b491d964736f6c63430008140033",
  "linkReferences": {},
  "deployedLinkReferences": {}
}