{
  "_format": "hh-sol-artifact-1",
  "contractName": "NFT",
  "sourceName": "contracts/NFT.sol",
  "abi": [
    {
      "inputs": [
        {
          "internalType": "address",
          "name": "initialOwner",
          "type": "address"
        }
      ],
      "stateMutability": "nonpayable",
      "type": "constructor"
    },
    {
      "inputs": [
        {
          "internalType": "address",
          "name": "sender",
          "type": "address"
        },
        {
          "internalType": "uint256",
          "name": "tokenId",
          "type": "uint256"
        },
        {
          "internalType": "address",
          "name": "owner",
          "type": "address"
        }
      ],
      "name": "ERC721IncorrectOwner",
      "type": "error"
    },
    {
      "inputs": [
        {
          "internalType": "address",
          "name": "operator",
          "type": "address"
        },
        {
          "internalType": "uint256",
          "name": "tokenId",
          "type": "uint256"
        }
      ],
      "name": "ERC721InsufficientApproval",
      "type": "error"
    },
    {
      "inputs": [
        {
          "internalType": "address",
          "name": "approver",
          "type": "address"
        }
      ],
      "name": "ERC721InvalidApprover",
      "type": "error"
    },
    {
      "inputs": [
        {
          "internalType": "address",
          "name": "operator",
          "type": "address"
        }
      ],
      "name": "ERC721InvalidOperator",
      "type": "error"
    },
    {
      "inputs": [
        {
          "internalType": "address",
          "name": "owner",
          "type": "address"
        }
      ],
      "name": "ERC721InvalidOwner",
      "type": "error"
    },
    {
      "inputs": [
        {
          "internalType": "address",
          "name": "receiver",
          "type": "address"
        }
      ],
      "name": "ERC721InvalidReceiver",
      "type": "error"
    },
    {
      "inputs": [
        {
          "internalType": "address",
          "name": "sender",
          "type": "address"
        }
      ],
      "name": "ERC721InvalidSender",
      "type": "error"
    },
    {
      "inputs": [
        {
          "internalType": "uint256",
          "name": "tokenId",
          "type": "uint256"
        }
      ],
      "name": "ERC721NonexistentToken",
      "type": "error"
    },
    {
      "inputs": [
        {
          "internalType": "address",
          "name": "owner",
          "type": "address"
        }
      ],
      "name": "OwnableInvalidOwner",
      "type": "error"
    },
    {
      "inputs": [
        {
          "internalType": "address",
          "name": "account",
          "type": "address"
        }
      ],
      "name": "OwnableUnauthorizedAccount",
      "type": "error"
    },
    {
      "anonymous": false,
      "inputs": [
        {
          "indexed": true,
          "internalType": "address",
          "name": "owner",
          "type": "address"
        },
        {
          "indexed": true,
          "internalType": "address",
          "name": "approved",
          "type": "address"
        },
        {
          "indexed": true,
          "internalType": "uint256",
          "name": "tokenId",
          "type": "uint256"
        }
      ],
      "name": "Approval",
      "type": "event"
    },
    {
      "anonymous": false,
      "inputs": [
        {
          "indexed": true,
          "internalType": "address",
          "name": "owner",
          "type": "address"
        },
        {
          "indexed": true,
          "internalType": "address",
          "name": "operator",
          "type": "address"
        },
        {
          "indexed": false,
          "internalType": "bool",
          "name": "approved",
          "type": "bool"
        }
      ],
      "name": "ApprovalForAll",
      "type": "event"
    },
    {
      "anonymous": false,
      "inputs": [
        {
          "indexed": true,
          "internalType": "address",
          "name": "previousOwner",
          "type": "address"
        },
        {
          "indexed": true,
          "internalType": "address",
          "name": "newOwner",
          "type": "address"
        }
      ],
      "name": "OwnershipTransferred",
      "type": "event"
    },
    {
      "anonymous": false,
      "inputs": [
        {
          "indexed": true,
          "internalType": "address",
          "name": "from",
          "type": "address"
        },
        {
          "indexed": true,
          "internalType": "address",
          "name": "to",
          "type": "address"
        },
        {
          "indexed": true,
          "internalType": "uint256",
          "name": "tokenId",
          "type": "uint256"
        }
      ],
      "name": "Transfer",
      "type": "event"
    },
    {
      "inputs": [
        {
          "internalType": "address",
          "name": "to",
          "type": "address"
        },
        {
          "internalType": "uint256",
          "name": "tokenId",
          "type": "uint256"
        }
      ],
      "name": "approve",
      "outputs": [],
      "stateMutability": "nonpayable",
      "type": "function"
    },
    {
      "inputs": [
        {
          "internalType": "address",
          "name": "owner",
          "type": "address"
        }
      ],
      "name": "balanceOf",
      "outputs": [
        {
          "internalType": "uint256",
          "name": "",
          "type": "uint256"
        }
      ],
      "stateMutability": "view",
      "type": "function"
    },
    {
      "inputs": [
        {
          "internalType": "uint256",
          "name": "tokenId",
          "type": "uint256"
        }
      ],
      "name": "getApproved",
      "outputs": [
        {
          "internalType": "address",
          "name": "",
          "type": "address"
        }
      ],
      "stateMutability": "view",
      "type": "function"
    },
    {
      "inputs": [
        {
          "internalType": "address",
          "name": "owner",
          "type": "address"
        },
        {
          "internalType": "address",
          "name": "operator",
          "type": "address"
        }
      ],
      "name": "isApprovedForAll",
      "outputs": [
        {
          "internalType": "bool",
          "name": "",
          "type": "bool"
        }
      ],
      "stateMutability": "view",
      "type": "function"
    },
    {
      "inputs": [
        {
          "internalType": "address",
          "name": "to",
          "type": "address"
        }
      ],
      "name": "mint",
      "outputs": [],
      "stateMutability": "nonpayable",
      "type": "function"
    },
    {
      "inputs": [],
      "name": "name",
      "outputs": [
        {
          "internalType": "string",
          "name": "",
          "type": "string"
        }
      ],
      "stateMutability": "view",
      "type": "function"
    },
    {
      "inputs": [],
      "name": "nextTokenId",
      "outputs": [
        {
          "internalType": "uint256",
          "name": "",
          "type": "uint256"
        }
      ],
      "stateMutability": "view",
      "type": "function"
    },
    {
      "inputs": [],
      "name": "owner",
      "outputs": [
        {
          "internalType": "address",
          "name": "",
          "type": "address"
        }
      ],
      "stateMutability": "view",
      "type": "function"
    },
    {
      "inputs": [
        {
          "internalType": "uint256",
          "name": "tokenId",
          "type": "uint256"
        }
      ],
      "name": "ownerOf",
      "outputs": [
        {
          "internalType": "address",
          "name": "",
          "type": "address"
        }
      ],
      "stateMutability": "view",
      "type": "function"
    },
    {
      "inputs": [],
      "name": "renounceOwnership",
      "outputs": [],
      "stateMutability": "nonpayable",
      "type": "function"
    },
    {
      "inputs": [
        {
          "internalType": "address",
          "name": "from",
          "type": "address"
        },
        {
          "internalType": "address",
          "name": "to",
          "type": "address"
        },
        {
          "internalType": "uint256",
          "name": "tokenId",
          "type": "uint256"
        }
      ],
      "name": "safeTransferFrom",
      "outputs": [],
      "stateMutability": "nonpayable",
      "type": "function"
    },
    {
      "inputs": [
        {
          "internalType": "address",
          "name": "from",
          "type": "address"
        },
        {
          "internalType": "address",
          "name": "to",
          "type": "address"
        },
        {
          "internalType": "uint256",
          "name": "tokenId",
          "type": "uint256"
        },
        {
          "internalType": "bytes",
          "name": "data",
          "type": "bytes"
        }
      ],
      "name": "safeTransferFrom",
      "outputs": [],
      "stateMutability": "nonpayable",
      "type": "function"
    },
    {
      "inputs": [
        {
          "internalType": "address",
          "name": "operator",
          "type": "address"
        },
        {
          "internalType": "bool",
          "name": "approved",
          "type": "bool"
        }
      ],
      "name": "setApprovalForAll",
      "outputs": [],
      "stateMutability": "nonpayable",
      "type": "function"
    },
    {
      "inputs": [
        {
          "internalType": "bytes4",
          "name": "interfaceId",
          "type": "bytes4"
        }
      ],
      "name": "supportsInterface",
      "outputs": [
        {
          "internalType": "bool",
          "name": "",
          "type": "bool"
        }
      ],
      "stateMutability": "view",
      "type": "function"
    },
    {
      "inputs": [],
      "name": "symbol",
      "outputs": [
        {
          "internalType": "string",
          "name": "",
          "type": "string"
        }
      ],
      "stateMutability": "view",
      "type": "function"
    },
    {
      "inputs": [
        {
          "internalType": "uint256",
          "name": "tokenId",
          "type": "uint256"
        }
      ],
      "name": "tokenURI",
      "outputs": [
        {
          "internalType": "string",
          "name": "",
          "type": "string"
        }
      ],
      "stateMutability": "view",
      "type": "function"
    },
    {
      "inputs": [
        {
          "internalType": "address",
          "name": "from",
          "type": "address"
        },
        {
          "internalType": "address",
          "name": "to",
          "type": "address"
        },
        {
          "internalType": "uint256",
          "name": "tokenId",
          "type": "uint256"
        }
      ],
      "name": "transferFrom",
      "outputs": [],
      "stateMutability": "nonpayable",
      "type": "function"
    },
    {
      "inputs": [
        {
          "internalType": "address",
          "name": "newOwner",
          "type": "address"
        }
      ],
      "name": "transferOwnership",
      "outputs": [],
      "stateMutability": "nonpayable",
      "type": "function"
    }
  ],
  "bytecode": "0x60806040523480156200001157600080fd5b50604051620027b0380380620027b0833981810160405281019062000037919062000288565b806040518060400160405280600781526020017f416c65614e4654000000000000000000000000000000000000000000000000008152506040518060400160405280600481526020017f414e4654000000000000000000000000000000000000000000000000000000008152508160009081620000b5919062000534565b508060019081620000c7919062000534565b505050600073ffffffffffffffffffffffffffffffffffffffff168173ffffffffffffffffffffffffffffffffffffffff16036200013f5760006040517f1e4fbdf70000000000000000000000000000000000000000000000000000000081526004016200013691906200062c565b60405180910390fd5b62000150816200015860201b60201c565b505062000649565b6000600660009054906101000a900473ffffffffffffffffffffffffffffffffffffffff16905081600660006101000a81548173ffffffffffffffffffffffffffffffffffffffff021916908373ffffffffffffffffffffffffffffffffffffffff1602179055508173ffffffffffffffffffffffffffffffffffffffff168173ffffffffffffffffffffffffffffffffffffffff167f8be0079c531659141344cd1fd0a4f28419497f9722a3daafe3b4186f6b6457e060405160405180910390a35050565b600080fd5b600073ffffffffffffffffffffffffffffffffffffffff82169050919050565b6000620002508262000223565b9050919050565b620002628162000243565b81146200026e57600080fd5b50565b600081519050620002828162000257565b92915050565b600060208284031215620002a157620002a06200021e565b5b6000620002b18482850162000271565b91505092915050565b600081519050919050565b7f4e487b7100000000000000000000000000000000000000000000000000000000600052604160045260246000fd5b7f4e487b7100000000000000000000000000000000000000000000000000000000600052602260045260246000fd5b600060028204905060018216806200033c57607f821691505b602082108103620003525762000351620002f4565b5b50919050565b60008190508160005260206000209050919050565b60006020601f8301049050919050565b600082821b905092915050565b600060088302620003bc7fffffffffffffffffffffffffffffffffffffffffffffffffffffffffffffffff826200037d565b620003c886836200037d565b95508019841693508086168417925050509392505050565b6000819050919050565b6000819050919050565b6000620004156200040f6200040984620003e0565b620003ea565b620003e0565b9050919050565b6000819050919050565b6200043183620003f4565b6200044962000440826200041c565b8484546200038a565b825550505050565b600090565b6200046062000451565b6200046d81848462000426565b505050565b5b8181101562000495576200048960008262000456565b60018101905062000473565b5050565b601f821115620004e457620004ae8162000358565b620004b9846200036d565b81016020851015620004c9578190505b620004e1620004d8856200036d565b83018262000472565b50505b505050565b600082821c905092915050565b60006200050960001984600802620004e9565b1980831691505092915050565b6000620005248383620004f6565b9150826002028217905092915050565b6200053f82620002ba565b67ffffffffffffffff8111156200055b576200055a620002c5565b5b62000567825462000323565b6200057482828562000499565b600060209050601f831160018114620005ac576000841562000597578287015190505b620005a3858262000516565b86555062000613565b601f198416620005bc8662000358565b60005b82811015620005e657848901518255600182019150602085019450602081019050620005bf565b8683101562000606578489015162000602601f891682620004f6565b8355505b6001600288020188555050505b505050505050565b620006268162000243565b82525050565b60006020820190506200064360008301846200061b565b92915050565b61215780620006596000396000f3fe608060405234801561001057600080fd5b50600436106101165760003560e01c8063715018a6116100a2578063a22cb46511610071578063a22cb465146102cd578063b88d4fde146102e9578063c87b56dd14610305578063e985e9c514610335578063f2fde38b1461036557610116565b8063715018a61461026957806375794a3c146102735780638da5cb5b1461029157806395d89b41146102af57610116565b806323b872dd116100e957806323b872dd146101b557806342842e0e146101d15780636352211e146101ed5780636a6278421461021d57806370a082311461023957610116565b806301ffc9a71461011b57806306fdde031461014b578063081812fc14610169578063095ea7b314610199575b600080fd5b6101356004803603810190610130919061192a565b610381565b6040516101429190611972565b60405180910390f35b610153610463565b6040516101609190611a1d565b60405180910390f35b610183600480360381019061017e9190611a75565b6104f5565b6040516101909190611ae3565b60405180910390f35b6101b360048036038101906101ae9190611b2a565b610511565b005b6101cf60048036038101906101ca9190611b6a565b610527565b005b6101eb60048036038101906101e69190611b6a565b610629565b005b61020760048036038101906102029190611a75565b610649565b6040516102149190611ae3565b60405180910390f35b61023760048036038101906102329190611bbd565b61065b565b005b610253600480360381019061024e9190611bbd565b61068a565b6040516102609190611bf9565b60405180910390f35b610271610744565b005b61027b610758565b6040516102889190611bf9565b60405180910390f35b61029961075e565b6040516102a69190611ae3565b60405180910390f35b6102b7610788565b6040516102c49190611a1d565b60405180910390f35b6102e760048036038101906102e29190611c40565b61081a565b005b61030360048036038101906102fe9190611db5565b610830565b005b61031f600480360381019061031a9190611a75565b61084d565b60405161032c9190611a1d565b60405180910390f35b61034f600480360381019061034a9190611e38565b6108b6565b60405161035c9190611972565b60405180910390f35b61037f600480360381019061037a9190611bbd565b61094a565b005b60007f80ac58cd000000000000000000000000000000000000000000000000000000007bffffffffffffffffffffffffffffffffffffffffffffffffffffffff1916827bffffffffffffffffffffffffffffffffffffffffffffffffffffffff1916148061044c57507f5b5e139f000000000000000000000000000000000000000000000000000000007bffffffffffffffffffffffffffffffffffffffffffffffffffffffff1916827bffffffffffffffffffffffffffffffffffffffffffffffffffffffff1916145b8061045c575061045b826109d0565b5b9050919050565b60606000805461047290611ea7565b80601f016020809104026020016040519081016040528092919081815260200182805461049e90611ea7565b80156104eb5780601f106104c0576101008083540402835291602001916104eb565b820191906000526020600020905b8154815290600101906020018083116104ce57829003601f168201915b5050505050905090565b600061050082610a3a565b5061050a82610ac2565b9050919050565b610523828261051e610aff565b610b07565b5050565b600073ffffffffffffffffffffffffffffffffffffffff168273ffffffffffffffffffffffffffffffffffffffff16036105995760006040517f64a0ae920000000000000000000000000000000000000000000000000000000081526004016105909190611ae3565b60405180910390fd5b60006105ad83836105a8610aff565b610b19565b90508373ffffffffffffffffffffffffffffffffffffffff168173ffffffffffffffffffffffffffffffffffffffff1614610623578382826040517f64283d7b00000000000000000000000000000000000000000000000000000000815260040161061a93929190611ed8565b60405180910390fd5b50505050565b61064483838360405180602001604052806000815250610830565b505050565b600061065482610a3a565b9050919050565b610663610d33565b61066f81600754610dba565b6007600081548092919061068290611f3e565b919050555050565b60008073ffffffffffffffffffffffffffffffffffffffff168273ffffffffffffffffffffffffffffffffffffffff16036106fd5760006040517f89c62b640000000000000000000000000000000000000000000000000000000081526004016106f49190611ae3565b60405180910390fd5b600360008373ffffffffffffffffffffffffffffffffffffffff1673ffffffffffffffffffffffffffffffffffffffff168152602001908152602001600020549050919050565b61074c610d33565b6107566000610dd8565b565b60075481565b6000600660009054906101000a900473ffffffffffffffffffffffffffffffffffffffff16905090565b60606001805461079790611ea7565b80601f01602080910402602001604051908101604052809291908181526020018280546107c390611ea7565b80156108105780601f106107e557610100808354040283529160200191610810565b820191906000526020600020905b8154815290600101906020018083116107f357829003601f168201915b5050505050905090565b61082c610825610aff565b8383610e9e565b5050565b61083b848484610527565b6108478484848461100d565b50505050565b606061085882610a3a565b5060006108636111c4565b9050600081511161088357604051806020016040528060008152506108ae565b8061088d84611201565b60405160200161089e929190611fc2565b6040516020818303038152906040525b915050919050565b6000600560008473ffffffffffffffffffffffffffffffffffffffff1673ffffffffffffffffffffffffffffffffffffffff16815260200190815260200160002060008373ffffffffffffffffffffffffffffffffffffffff1673ffffffffffffffffffffffffffffffffffffffff16815260200190815260200160002060009054906101000a900460ff16905092915050565b610952610d33565b600073ffffffffffffffffffffffffffffffffffffffff168173ffffffffffffffffffffffffffffffffffffffff16036109c45760006040517f1e4fbdf70000000000000000000000000000000000000000000000000000000081526004016109bb9190611ae3565b60405180910390fd5b6109cd81610dd8565b50565b60007f01ffc9a7000000000000000000000000000000000000000000000000000000007bffffffffffffffffffffffffffffffffffffffffffffffffffffffff1916827bffffffffffffffffffffffffffffffffffffffffffffffffffffffff1916149050919050565b600080610a46836112cf565b9050600073ffffffffffffffffffffffffffffffffffffffff168173ffffffffffffffffffffffffffffffffffffffff1603610ab957826040517f7e273289000000000000000000000000000000000000000000000000000000008152600401610ab09190611bf9565b60405180910390fd5b80915050919050565b60006004600083815260200190815260200160002060009054906101000a900473ffffffffffffffffffffffffffffffffffffffff169050919050565b600033905090565b610b14838383600161130c565b505050565b600080610b25846112cf565b9050600073ffffffffffffffffffffffffffffffffffffffff168373ffffffffffffffffffffffffffffffffffffffff1614610b6757610b668184866114d1565b5b600073ffffffffffffffffffffffffffffffffffffffff168173ffffffffffffffffffffffffffffffffffffffff1614610bf857610ba960008560008061130c565b6001600360008373ffffffffffffffffffffffffffffffffffffffff1673ffffffffffffffffffffffffffffffffffffffff168152602001908152602001600020600082825403925050819055505b600073ffffffffffffffffffffffffffffffffffffffff168573ffffffffffffffffffffffffffffffffffffffff1614610c7b576001600360008773ffffffffffffffffffffffffffffffffffffffff1673ffffffffffffffffffffffffffffffffffffffff168152602001908152602001600020600082825401925050819055505b846002600086815260200190815260200160002060006101000a81548173ffffffffffffffffffffffffffffffffffffffff021916908373ffffffffffffffffffffffffffffffffffffffff160217905550838573ffffffffffffffffffffffffffffffffffffffff168273ffffffffffffffffffffffffffffffffffffffff167fddf252ad1be2c89b69c2b068fc378daa952ba7f163c4a11628f55a4df523b3ef60405160405180910390a4809150509392505050565b610d3b610aff565b73ffffffffffffffffffffffffffffffffffffffff16610d5961075e565b73ffffffffffffffffffffffffffffffffffffffff1614610db857610d7c610aff565b6040517f118cdaa7000000000000000000000000000000000000000000000000000000008152600401610daf9190611ae3565b60405180910390fd5b565b610dd4828260405180602001604052806000815250611595565b5050565b6000600660009054906101000a900473ffffffffffffffffffffffffffffffffffffffff16905081600660006101000a81548173ffffffffffffffffffffffffffffffffffffffff021916908373ffffffffffffffffffffffffffffffffffffffff1602179055508173ffffffffffffffffffffffffffffffffffffffff168173ffffffffffffffffffffffffffffffffffffffff167f8be0079c531659141344cd1fd0a4f28419497f9722a3daafe3b4186f6b6457e060405160405180910390a35050565b600073ffffffffffffffffffffffffffffffffffffffff168273ffffffffffffffffffffffffffffffffffffffff1603610f0f57816040517f5b08ba18000000000000000000000000000000000000000000000000000000008152600401610f069190611ae3565b60405180910390fd5b80600560008573ffffffffffffffffffffffffffffffffffffffff1673ffffffffffffffffffffffffffffffffffffffff16815260200190815260200160002060008473ffffffffffffffffffffffffffffffffffffffff1673ffffffffffffffffffffffffffffffffffffffff16815260200190815260200160002060006101000a81548160ff0219169083151502179055508173ffffffffffffffffffffffffffffffffffffffff168373ffffffffffffffffffffffffffffffffffffffff167f17307eab39ab6107e8899845ad3d59bd9653f200f220920489ca2b5937696c31836040516110009190611972565b60405180910390a3505050565b60008373ffffffffffffffffffffffffffffffffffffffff163b11156111be578273ffffffffffffffffffffffffffffffffffffffff1663150b7a02611051610aff565b8685856040518563ffffffff1660e01b8152600401611073949392919061203b565b6020604051808303816000875af19250505080156110af57506040513d601f19601f820116820180604052508101906110ac919061209c565b60015b611133573d80600081146110df576040519150601f19603f3d011682016040523d82523d6000602084013e6110e4565b606091505b50600081510361112b57836040517f64a0ae920000000000000000000000000000000000000000000000000000000081526004016111229190611ae3565b60405180910390fd5b805181602001fd5b63150b7a0260e01b7bffffffffffffffffffffffffffffffffffffffffffffffffffffffff1916817bffffffffffffffffffffffffffffffffffffffffffffffffffffffff1916146111bc57836040517f64a0ae920000000000000000000000000000000000000000000000000000000081526004016111b39190611ae3565b60405180910390fd5b505b50505050565b60606040518060400160405280601981526020017f68747470733a2f2f6170692e616c65612e636f6d2f6e66742f00000000000000815250905090565b606060006001611210846115b1565b01905060008167ffffffffffffffff81111561122f5761122e611c8a565b5b6040519080825280601f01601f1916602001820160405280156112615781602001600182028036833780820191505090505b509050600082602001820190505b6001156112c4578080600190039150507f3031323334353637383961626364656600000000000000000000000000000000600a86061a8153600a85816112b8576112b76120c9565b5b0494506000850361126f575b819350505050919050565b60006002600083815260200190815260200160002060009054906101000a900473ffffffffffffffffffffffffffffffffffffffff169050919050565b80806113455750600073ffffffffffffffffffffffffffffffffffffffff168273ffffffffffffffffffffffffffffffffffffffff1614155b1561147957600061135584610a3a565b9050600073ffffffffffffffffffffffffffffffffffffffff168373ffffffffffffffffffffffffffffffffffffffff16141580156113c057508273ffffffffffffffffffffffffffffffffffffffff168173ffffffffffffffffffffffffffffffffffffffff1614155b80156113d357506113d181846108b6565b155b1561141557826040517fa9fbf51f00000000000000000000000000000000000000000000000000000000815260040161140c9190611ae3565b60405180910390fd5b811561147757838573ffffffffffffffffffffffffffffffffffffffff168273ffffffffffffffffffffffffffffffffffffffff167f8c5be1e5ebec7d5bd14f71427d1e84f3dd0314c0f7b2291e5b200ac8c7c3b92560405160405180910390a45b505b836004600085815260200190815260200160002060006101000a81548173ffffffffffffffffffffffffffffffffffffffff021916908373ffffffffffffffffffffffffffffffffffffffff16021790555050505050565b6114dc838383611704565b61159057600073ffffffffffffffffffffffffffffffffffffffff168373ffffffffffffffffffffffffffffffffffffffff160361155157806040517f7e2732890000000000000000000000000000000000000000000000000000000081526004016115489190611bf9565b60405180910390fd5b81816040517f177e802f0000000000000000000000000000000000000000000000000000000081526004016115879291906120f8565b60405180910390fd5b505050565b61159f83836117c5565b6115ac600084848461100d565b505050565b600080600090507a184f03e93ff9f4daa797ed6e38ed64bf6a1f010000000000000000831061160f577a184f03e93ff9f4daa797ed6e38ed64bf6a1f0100000000000000008381611605576116046120c9565b5b0492506040810190505b6d04ee2d6d415b85acef8100000000831061164c576d04ee2d6d415b85acef81000000008381611642576116416120c9565b5b0492506020810190505b662386f26fc10000831061167b57662386f26fc100008381611671576116706120c9565b5b0492506010810190505b6305f5e10083106116a4576305f5e100838161169a576116996120c9565b5b0492506008810190505b61271083106116c95761271083816116bf576116be6120c9565b5b0492506004810190505b606483106116ec57606483816116e2576116e16120c9565b5b0492506002810190505b600a83106116fb576001810190505b80915050919050565b60008073ffffffffffffffffffffffffffffffffffffffff168373ffffffffffffffffffffffffffffffffffffffff16141580156117bc57508273ffffffffffffffffffffffffffffffffffffffff168473ffffffffffffffffffffffffffffffffffffffff16148061177d575061177c84846108b6565b5b806117bb57508273ffffffffffffffffffffffffffffffffffffffff166117a383610ac2565b73ffffffffffffffffffffffffffffffffffffffff16145b5b90509392505050565b600073ffffffffffffffffffffffffffffffffffffffff168273ffffffffffffffffffffffffffffffffffffffff16036118375760006040517f64a0ae9200000000000000000000000000000000000000000000000000000000815260040161182e9190611ae3565b60405180910390fd5b600061184583836000610b19565b9050600073ffffffffffffffffffffffffffffffffffffffff168173ffffffffffffffffffffffffffffffffffffffff16146118b95760006040517f73c6ac6e0000000000000000000000000000000000000000000000000000000081526004016118b09190611ae3565b60405180910390fd5b505050565b6000604051905090565b600080fd5b600080fd5b60007fffffffff0000000000000000000000000000000000000000000000000000000082169050919050565b611907816118d2565b811461191257600080fd5b50565b600081359050611924816118fe565b92915050565b6000602082840312156119405761193f6118c8565b5b600061194e84828501611915565b91505092915050565b60008115159050919050565b61196c81611957565b82525050565b60006020820190506119876000830184611963565b92915050565b600081519050919050565b600082825260208201905092915050565b60005b838110156119c75780820151818401526020810190506119ac565b60008484015250505050565b6000601f19601f8301169050919050565b60006119ef8261198d565b6119f98185611998565b9350611a098185602086016119a9565b611a12816119d3565b840191505092915050565b60006020820190508181036000830152611a3781846119e4565b905092915050565b6000819050919050565b611a5281611a3f565b8114611a5d57600080fd5b50565b600081359050611a6f81611a49565b92915050565b600060208284031215611a8b57611a8a6118c8565b5b6000611a9984828501611a60565b91505092915050565b600073ffffffffffffffffffffffffffffffffffffffff82169050919050565b6000611acd82611aa2565b9050919050565b611add81611ac2565b82525050565b6000602082019050611af86000830184611ad4565b92915050565b611b0781611ac2565b8114611b1257600080fd5b50565b600081359050611b2481611afe565b92915050565b60008060408385031215611b4157611b406118c8565b5b6000611b4f85828601611b15565b9250506020611b6085828601611a60565b9150509250929050565b600080600060608486031215611b8357611b826118c8565b5b6000611b9186828701611b15565b9350506020611ba286828701611b15565b9250506040611bb386828701611a60565b9150509250925092565b600060208284031215611bd357611bd26118c8565b5b6000611be184828501611b15565b91505092915050565b611bf381611a3f565b82525050565b6000602082019050611c0e6000830184611bea565b92915050565b611c1d81611957565b8114611c2857600080fd5b50565b600081359050611c3a81611c14565b92915050565b60008060408385031215611c5757611c566118c8565b5b6000611c6585828601611b15565b9250506020611c7685828601611c2b565b9150509250929050565b600080fd5b600080fd5b7f4e487b7100000000000000000000000000000000000000000000000000000000600052604160045260246000fd5b611cc2826119d3565b810181811067ffffffffffffffff82111715611ce157611ce0611c8a565b5b80604052505050565b6000611cf46118be565b9050611d008282611cb9565b919050565b600067ffffffffffffffff821115611d2057611d1f611c8a565b5b611d29826119d3565b9050602081019050919050565b82818337600083830152505050565b6000611d58611d5384611d05565b611cea565b905082815260208101848484011115611d7457611d73611c85565b5b611d7f848285611d36565b509392505050565b600082601f830112611d9c57611d9b611c80565b5b8135611dac848260208601611d45565b91505092915050565b60008060008060808587031215611dcf57611dce6118c8565b5b6000611ddd87828801611b15565b9450506020611dee87828801611b15565b9350506040611dff87828801611a60565b925050606085013567ffffffffffffffff811115611e2057611e1f6118cd565b5b611e2c87828801611d87565b91505092959194509250565b60008060408385031215611e4f57611e4e6118c8565b5b6000611e5d85828601611b15565b9250506020611e6e85828601611b15565b9150509250929050565b7f4e487b7100000000000000000000000000000000000000000000000000000000600052602260045260246000fd5b60006002820490506001821680611ebf57607f821691505b602082108103611ed257611ed1611e78565b5b50919050565b6000606082019050611eed6000830186611ad4565b611efa6020830185611bea565b611f076040830184611ad4565b949350505050565b7f4e487b7100000000000000000000000000000000000000000000000000000000600052601160045260246000fd5b6000611f4982611a3f565b91507fffffffffffffffffffffffffffffffffffffffffffffffffffffffffffffffff8203611f7b57611f7a611f0f565b5b600182019050919050565b600081905092915050565b6000611f9c8261198d565b611fa68185611f86565b9350611fb68185602086016119a9565b80840191505092915050565b6000611fce8285611f91565b9150611fda8284611f91565b91508190509392505050565b600081519050919050565b600082825260208201905092915050565b600061200d82611fe6565b6120178185611ff1565b93506120278185602086016119a9565b612030816119d3565b840191505092915050565b60006080820190506120506000830187611ad4565b61205d6020830186611ad4565b61206a6040830185611bea565b818103606083015261207c8184612002565b905095945050505050565b600081519050612096816118fe565b92915050565b6000602082840312156120b2576120b16118c8565b5b60006120c084828501612087565b91505092915050565b7f4e487b7100000000000000000000000000000000000000000000000000000000600052601260045260246000fd5b600060408201905061210d6000830185611ad4565b61211a6020830184611bea565b939250505056fea2646970667358221220aa43c5bd130fd24c3c1e435da5f5cbf52d97e8e078d2ad8ce78a9a907c2c769d64736f6c63430008140033",
  "linkReferences": {},
  "deployedLinkReferences": {}
}